{
  "contractName": "Q8JAN",
  "abi": [
    {
      "inputs": [],
      "stateMutability": "nonpayable",
      "type": "constructor"
    },
    {
      "inputs": [
        {
          "internalType": "address",
          "name": "spender",
          "type": "address"
        },
        {
          "internalType": "uint256",
          "name": "allowance",
          "type": "uint256"
        },
        {
          "internalType": "uint256",
          "name": "needed",
          "type": "uint256"
        }
      ],
      "name": "ERC20InsufficientAllowance",
      "type": "error"
    },
    {
      "inputs": [
        {
          "internalType": "address",
          "name": "sender",
          "type": "address"
        },
        {
          "internalType": "uint256",
          "name": "balance",
          "type": "uint256"
        },
        {
          "internalType": "uint256",
          "name": "needed",
          "type": "uint256"
        }
      ],
      "name": "ERC20InsufficientBalance",
      "type": "error"
    },
    {
      "inputs": [
        {
          "internalType": "address",
          "name": "approver",
          "type": "address"
        }
      ],
      "name": "ERC20InvalidApprover",
      "type": "error"
    },
    {
      "inputs": [
        {
          "internalType": "address",
          "name": "receiver",
          "type": "address"
        }
      ],
      "name": "ERC20InvalidReceiver",
      "type": "error"
    },
    {
      "inputs": [
        {
          "internalType": "address",
          "name": "sender",
          "type": "address"
        }
      ],
      "name": "ERC20InvalidSender",
      "type": "error"
    },
    {
      "inputs": [
        {
          "internalType": "address",
          "name": "spender",
          "type": "address"
        }
      ],
      "name": "ERC20InvalidSpender",
      "type": "error"
    },
    {
      "anonymous": false,
      "inputs": [
        {
          "indexed": true,
          "internalType": "address",
          "name": "owner",
          "type": "address"
        },
        {
          "indexed": true,
          "internalType": "address",
          "name": "spender",
          "type": "address"
        },
        {
          "indexed": false,
          "internalType": "uint256",
          "name": "value",
          "type": "uint256"
        }
      ],
      "name": "Approval",
      "type": "event"
    },
    {
      "anonymous": false,
      "inputs": [
        {
          "indexed": true,
          "internalType": "address",
          "name": "from",
          "type": "address"
        },
        {
          "indexed": true,
          "internalType": "address",
          "name": "to",
          "type": "address"
        },
        {
          "indexed": false,
          "internalType": "uint256",
          "name": "value",
          "type": "uint256"
        }
      ],
      "name": "Transfer",
      "type": "event"
    },
    {
      "inputs": [],
      "name": "MAX_SUPPLY",
      "outputs": [
        {
          "internalType": "uint256",
          "name": "",
          "type": "uint256"
        }
      ],
      "stateMutability": "view",
      "type": "function"
    },
    {
      "inputs": [
        {
          "internalType": "address",
          "name": "owner",
          "type": "address"
        },
        {
          "internalType": "address",
          "name": "spender",
          "type": "address"
        }
      ],
      "name": "allowance",
      "outputs": [
        {
          "internalType": "uint256",
          "name": "",
          "type": "uint256"
        }
      ],
      "stateMutability": "view",
      "type": "function"
    },
    {
      "inputs": [
        {
          "internalType": "address",
          "name": "spender",
          "type": "address"
        },
        {
          "internalType": "uint256",
          "name": "value",
          "type": "uint256"
        }
      ],
      "name": "approve",
      "outputs": [
        {
          "internalType": "bool",
          "name": "",
          "type": "bool"
        }
      ],
      "stateMutability": "nonpayable",
      "type": "function"
    },
    {
      "inputs": [
        {
          "internalType": "address",
          "name": "account",
          "type": "address"
        }
      ],
      "name": "balanceOf",
      "outputs": [
        {
          "internalType": "uint256",
          "name": "",
          "type": "uint256"
        }
      ],
      "stateMutability": "view",
      "type": "function"
    },
    {
      "inputs": [
        {
          "internalType": "uint256",
          "name": "value",
          "type": "uint256"
        }
      ],
      "name": "burn",
      "outputs": [],
      "stateMutability": "nonpayable",
      "type": "function"
    },
    {
      "inputs": [
        {
          "internalType": "address",
          "name": "account",
          "type": "address"
        },
        {
          "internalType": "uint256",
          "name": "value",
          "type": "uint256"
        }
      ],
      "name": "burnFrom",
      "outputs": [],
      "stateMutability": "nonpayable",
      "type": "function"
    },
    {
      "inputs": [],
      "name": "decimals",
      "outputs": [
        {
          "internalType": "uint8",
          "name": "",
          "type": "uint8"
        }
      ],
      "stateMutability": "view",
      "type": "function"
    },
    {
      "inputs": [],
      "name": "name",
      "outputs": [
        {
          "internalType": "string",
          "name": "",
          "type": "string"
        }
      ],
      "stateMutability": "view",
      "type": "function"
    },
    {
      "inputs": [],
      "name": "symbol",
      "outputs": [
        {
          "internalType": "string",
          "name": "",
          "type": "string"
        }
      ],
      "stateMutability": "view",
      "type": "function"
    },
    {
      "inputs": [],
      "name": "totalSupply",
      "outputs": [
        {
          "internalType": "uint256",
          "name": "",
          "type": "uint256"
        }
      ],
      "stateMutability": "view",
      "type": "function"
    },
    {
      "inputs": [
        {
          "internalType": "address",
          "name": "to",
          "type": "address"
        },
        {
          "internalType": "uint256",
          "name": "value",
          "type": "uint256"
        }
      ],
      "name": "transfer",
      "outputs": [
        {
          "internalType": "bool",
          "name": "",
          "type": "bool"
        }
      ],
      "stateMutability": "nonpayable",
      "type": "function"
    },
    {
      "inputs": [
        {
          "internalType": "address",
          "name": "from",
          "type": "address"
        },
        {
          "internalType": "address",
          "name": "to",
          "type": "address"
        },
        {
          "internalType": "uint256",
          "name": "value",
          "type": "uint256"
        }
      ],
      "name": "transferFrom",
      "outputs": [
        {
          "internalType": "bool",
          "name": "",
          "type": "bool"
        }
      ],
      "stateMutability": "nonpayable",
      "type": "function"
    }
  ],
  "bytecode": "0x608060405234801562000010575f80fd5b50d380156200001d575f80fd5b50d280156200002a575f80fd5b506040518060400160405280600581526020017f51384a414e0000000000000000000000000000000000000000000000000000008152506040518060400160405280600581526020017f51384a414e0000000000000000000000000000000000000000000000000000008152508160039081620000a89190620005f4565b508060049081620000ba9190620005f4565b505050620000dc336c01431e0fae6d7217caa0000000620000e260201b60201c565b62000804565b5f73ffffffffffffffffffffffffffffffffffffffff168273ffffffffffffffffffffffffffffffffffffffff160362000155575f6040517fec442f050000000000000000000000000000000000000000000000000000000081526004016200014c91906200071b565b60405180910390fd5b620001685f83836200016c60201b60201c565b5050565b5f73ffffffffffffffffffffffffffffffffffffffff168373ffffffffffffffffffffffffffffffffffffffff1603620001c0578060025f828254620001b3919062000763565b9250508190555062000291565b5f805f8573ffffffffffffffffffffffffffffffffffffffff1673ffffffffffffffffffffffffffffffffffffffff1681526020019081526020015f20549050818110156200024c578381836040517fe450d38c0000000000000000000000000000000000000000000000000000000081526004016200024393929190620007ae565b60405180910390fd5b8181035f808673ffffffffffffffffffffffffffffffffffffffff1673ffffffffffffffffffffffffffffffffffffffff1681526020019081526020015f2081905550505b5f73ffffffffffffffffffffffffffffffffffffffff168273ffffffffffffffffffffffffffffffffffffffff1603620002da578060025f828254039250508190555062000324565b805f808473ffffffffffffffffffffffffffffffffffffffff1673ffffffffffffffffffffffffffffffffffffffff1681526020019081526020015f205f82825401925050819055505b8173ffffffffffffffffffffffffffffffffffffffff168373ffffffffffffffffffffffffffffffffffffffff167fddf252ad1be2c89b69c2b068fc378daa952ba7f163c4a11628f55a4df523b3ef83604051620003839190620007e9565b60405180910390a3505050565b5f81519050919050565b7f4e487b71000000000000000000000000000000000000000000000000000000005f52604160045260245ffd5b7f4e487b71000000000000000000000000000000000000000000000000000000005f52602260045260245ffd5b5f60028204905060018216806200040c57607f821691505b602082108103620004225762000421620003c7565b5b50919050565b5f819050815f5260205f209050919050565b5f6020601f8301049050919050565b5f82821b905092915050565b5f60088302620004867fffffffffffffffffffffffffffffffffffffffffffffffffffffffffffffffff8262000449565b62000492868362000449565b95508019841693508086168417925050509392505050565b5f819050919050565b5f819050919050565b5f620004dc620004d6620004d084620004aa565b620004b3565b620004aa565b9050919050565b5f819050919050565b620004f783620004bc565b6200050f6200050682620004e3565b84845462000455565b825550505050565b5f90565b6200052562000517565b62000532818484620004ec565b505050565b5b8181101562000559576200054d5f826200051b565b60018101905062000538565b5050565b601f821115620005a857620005728162000428565b6200057d846200043a565b810160208510156200058d578190505b620005a56200059c856200043a565b83018262000537565b50505b505050565b5f82821c905092915050565b5f620005ca5f1984600802620005ad565b1980831691505092915050565b5f620005e48383620005b9565b9150826002028217905092915050565b620005ff8262000390565b67ffffffffffffffff8111156200061b576200061a6200039a565b5b620006278254620003f4565b620006348282856200055d565b5f60209050601f8311600181146200066a575f841562000655578287015190505b620006618582620005d7565b865550620006d0565b601f1984166200067a8662000428565b5f5b82811015620006a3578489015182556001820191506020850194506020810190506200067c565b86831015620006c35784890151620006bf601f891682620005b9565b8355505b6001600288020188555050505b505050505050565b5f73ffffffffffffffffffffffffffffffffffffffff82169050919050565b5f6200070382620006d8565b9050919050565b6200071581620006f7565b82525050565b5f602082019050620007305f8301846200070a565b92915050565b7f4e487b71000000000000000000000000000000000000000000000000000000005f52601160045260245ffd5b5f6200076f82620004aa565b91506200077c83620004aa565b925082820190508082111562000797576200079662000736565b5b92915050565b620007a881620004aa565b82525050565b5f606082019050620007c35f8301866200070a565b620007d260208301856200079d565b620007e160408301846200079d565b949350505050565b5f602082019050620007fe5f8301846200079d565b92915050565b610fa580620008125f395ff3fe608060405234801561000f575f80fd5b50d3801561001b575f80fd5b50d28015610027575f80fd5b50600436106100ca575f3560e01c806342966c681161008757806342966c68146101a657806370a08231146101c257806379cc6790146101f257806395d89b411461020e578063a9059cbb1461022c578063dd62ed3e1461025c576100ca565b806306fdde03146100ce578063095ea7b3146100ec57806318160ddd1461011c57806323b872dd1461013a578063313ce5671461016a57806332cb6b0c14610188575b5f80fd5b6100d661028c565b6040516100e39190610bc8565b60405180910390f35b61010660048036038101906101019190610ca4565b61031c565b6040516101139190610cfc565b60405180910390f35b61012461033e565b6040516101319190610d24565b60405180910390f35b610154600480360381019061014f9190610d3d565b610347565b6040516101619190610cfc565b60405180910390f35b610172610375565b60405161017f9190610da8565b60405180910390f35b61019061037d565b60405161019d9190610d24565b60405180910390f35b6101c060048036038101906101bb9190610dc1565b61038e565b005b6101dc60048036038101906101d79190610dec565b6103a2565b6040516101e99190610d24565b60405180910390f35b61020c60048036038101906102079190610ca4565b6103e7565b005b610216610407565b6040516102239190610bc8565b60405180910390f35b61024660048036038101906102419190610ca4565b610497565b6040516102539190610cfc565b60405180910390f35b61027660048036038101906102719190610e17565b6104b9565b6040516102839190610d24565b60405180910390f35b60606003805461029b90610e82565b80601f01602080910402602001604051908101604052809291908181526020018280546102c790610e82565b80156103125780601f106102e957610100808354040283529160200191610312565b820191905f5260205f20905b8154815290600101906020018083116102f557829003601f168201915b5050505050905090565b5f8061032661053b565b9050610333818585610542565b600191505092915050565b5f600254905090565b5f8061035161053b565b905061035e858285610554565b6103698585856105e7565b60019150509392505050565b5f6012905090565b6c01431e0fae6d7217caa000000081565b61039f61039961053b565b826106d7565b50565b5f805f8373ffffffffffffffffffffffffffffffffffffffff1673ffffffffffffffffffffffffffffffffffffffff1681526020019081526020015f20549050919050565b6103f9826103f361053b565b83610554565b61040382826106d7565b5050565b60606004805461041690610e82565b80601f016020809104026020016040519081016040528092919081815260200182805461044290610e82565b801561048d5780601f106104645761010080835404028352916020019161048d565b820191905f5260205f20905b81548152906001019060200180831161047057829003601f168201915b5050505050905090565b5f806104a161053b565b90506104ae8185856105e7565b600191505092915050565b5f60015f8473ffffffffffffffffffffffffffffffffffffffff1673ffffffffffffffffffffffffffffffffffffffff1681526020019081526020015f205f8373ffffffffffffffffffffffffffffffffffffffff1673ffffffffffffffffffffffffffffffffffffffff1681526020019081526020015f2054905092915050565b5f33905090565b61054f8383836001610756565b505050565b5f61055f84846104b9565b90507fffffffffffffffffffffffffffffffffffffffffffffffffffffffffffffffff8110156105e157818110156105d2578281836040517ffb8f41b20000000000000000000000000000000000000000000000000000000081526004016105c993929190610ec1565b60405180910390fd5b6105e084848484035f610756565b5b50505050565b5f73ffffffffffffffffffffffffffffffffffffffff168373ffffffffffffffffffffffffffffffffffffffff1603610657575f6040517f96c6fd1e00000000000000000000000000000000000000000000000000000000815260040161064e9190610ef6565b60405180910390fd5b5f73ffffffffffffffffffffffffffffffffffffffff168273ffffffffffffffffffffffffffffffffffffffff16036106c7575f6040517fec442f050000000000000000000000000000000000000000000000000000000081526004016106be9190610ef6565b60405180910390fd5b6106d2838383610925565b505050565b5f73ffffffffffffffffffffffffffffffffffffffff168273ffffffffffffffffffffffffffffffffffffffff1603610747575f6040517f96c6fd1e00000000000000000000000000000000000000000000000000000000815260040161073e9190610ef6565b60405180910390fd5b610752825f83610925565b5050565b5f73ffffffffffffffffffffffffffffffffffffffff168473ffffffffffffffffffffffffffffffffffffffff16036107c6575f6040517fe602df050000000000000000000000000000000000000000000000000000000081526004016107bd9190610ef6565b60405180910390fd5b5f73ffffffffffffffffffffffffffffffffffffffff168373ffffffffffffffffffffffffffffffffffffffff1603610836575f6040517f94280d6200000000000000000000000000000000000000000000000000000000815260040161082d9190610ef6565b60405180910390fd5b8160015f8673ffffffffffffffffffffffffffffffffffffffff1673ffffffffffffffffffffffffffffffffffffffff1681526020019081526020015f205f8573ffffffffffffffffffffffffffffffffffffffff1673ffffffffffffffffffffffffffffffffffffffff1681526020019081526020015f2081905550801561091f578273ffffffffffffffffffffffffffffffffffffffff168473ffffffffffffffffffffffffffffffffffffffff167f8c5be1e5ebec7d5bd14f71427d1e84f3dd0314c0f7b2291e5b200ac8c7c3b925846040516109169190610d24565b60405180910390a35b50505050565b5f73ffffffffffffffffffffffffffffffffffffffff168373ffffffffffffffffffffffffffffffffffffffff1603610975578060025f8282546109699190610f3c565b92505081905550610a43565b5f805f8573ffffffffffffffffffffffffffffffffffffffff1673ffffffffffffffffffffffffffffffffffffffff1681526020019081526020015f20549050818110156109fe578381836040517fe450d38c0000000000000000000000000000000000000000000000000000000081526004016109f593929190610ec1565b60405180910390fd5b8181035f808673ffffffffffffffffffffffffffffffffffffffff1673ffffffffffffffffffffffffffffffffffffffff1681526020019081526020015f2081905550505b5f73ffffffffffffffffffffffffffffffffffffffff168273ffffffffffffffffffffffffffffffffffffffff1603610a8a578060025f8282540392505081905550610ad4565b805f808473ffffffffffffffffffffffffffffffffffffffff1673ffffffffffffffffffffffffffffffffffffffff1681526020019081526020015f205f82825401925050819055505b8173ffffffffffffffffffffffffffffffffffffffff168373ffffffffffffffffffffffffffffffffffffffff167fddf252ad1be2c89b69c2b068fc378daa952ba7f163c4a11628f55a4df523b3ef83604051610b319190610d24565b60405180910390a3505050565b5f81519050919050565b5f82825260208201905092915050565b5f5b83811015610b75578082015181840152602081019050610b5a565b5f8484015250505050565b5f601f19601f8301169050919050565b5f610b9a82610b3e565b610ba48185610b48565b9350610bb4818560208601610b58565b610bbd81610b80565b840191505092915050565b5f6020820190508181035f830152610be08184610b90565b905092915050565b5f80fd5b5f74ffffffffffffffffffffffffffffffffffffffffff82169050919050565b610c1581610bec565b8114610c1f575f80fd5b50565b5f73ffffffffffffffffffffffffffffffffffffffff82169050919050565b5f610c4b82610c22565b9050919050565b5f81359050610c6081610c0c565b610c6981610c41565b905092915050565b5f819050919050565b610c8381610c71565b8114610c8d575f80fd5b50565b5f81359050610c9e81610c7a565b92915050565b5f8060408385031215610cba57610cb9610be8565b5b5f610cc785828601610c52565b9250506020610cd885828601610c90565b9150509250929050565b5f8115159050919050565b610cf681610ce2565b82525050565b5f602082019050610d0f5f830184610ced565b92915050565b610d1e81610c71565b82525050565b5f602082019050610d375f830184610d15565b92915050565b5f805f60608486031215610d5457610d53610be8565b5b5f610d6186828701610c52565b9350506020610d7286828701610c52565b9250506040610d8386828701610c90565b9150509250925092565b5f60ff82169050919050565b610da281610d8d565b82525050565b5f602082019050610dbb5f830184610d99565b92915050565b5f60208284031215610dd657610dd5610be8565b5b5f610de384828501610c90565b91505092915050565b5f60208284031215610e0157610e00610be8565b5b5f610e0e84828501610c52565b91505092915050565b5f8060408385031215610e2d57610e2c610be8565b5b5f610e3a85828601610c52565b9250506020610e4b85828601610c52565b9150509250929050565b7f4e487b71000000000000000000000000000000000000000000000000000000005f52602260045260245ffd5b5f6002820490506001821680610e9957607f821691505b602082108103610eac57610eab610e55565b5b50919050565b610ebb81610c41565b82525050565b5f606082019050610ed45f830186610eb2565b610ee16020830185610d15565b610eee6040830184610d15565b949350505050565b5f602082019050610f095f830184610eb2565b92915050565b7f4e487b71000000000000000000000000000000000000000000000000000000005f52601160045260245ffd5b5f610f4682610c71565b9150610f5183610c71565b9250828201905080821115610f6957610f68610f0f565b5b9291505056fea26474726f6e582212206370b6f050121fecab626df41651bf9827d2022c351cfbd76ac4ef680960ffe964736f6c63430008140033",
  "source": "// SPDX-License-Identifier: MIT\r\npragma solidity ^0.8.20;\r\n\r\nimport \"@openzeppelin/contracts/token/ERC20/ERC20.sol\";\r\nimport \"@openzeppelin/contracts/token/ERC20/extensions/ERC20Burnable.sol\";\r\n\r\n/// @title Q8JAN\r\n/// @notice Fixed-supply TRC-20 token.\r\n/// @dev Initial supply is minted once at deployment.\r\n/// No minting function exists after deployment.\r\ncontract Q8JAN is ERC20, ERC20Burnable {\r\n    uint256 public constant MAX_SUPPLY = 100_000_000_000 * 10 ** 18;\r\n\r\n    constructor() ERC20(\"Q8JAN\", \"Q8JAN\") {\r\n        _mint(msg.sender, MAX_SUPPLY);\r\n    }\r\n}",
  "sourcePath": "C:/Users/DELL/OneDrive/Desktop/Q8JAN/tron/contracts/Q8JAN.sol",
  "compiler": {
    "name": "solc",
    "version": "0.8.20+commit.5f1834bc.Emscripten.clang"
  },
  "schemaVersion": "2.0.1",
  "updatedAt": "2026-07-04T22:21:05.151Z"
}